:100000000C9446000C9465000C9465000C946500FB
:100010000C9465000C9465000C9465000C946500CC
:100020000C9465000C9465000C9465000C946500BC
:100030000C9465000C9465000C9465000C946500AC
:100040000C9465000C9465000C9465000C9465009C
:100050000C9465000C9465000C9465000C9465008C
:100060000C9465000C9465000C9465000C9465007C
:100070000C9465000C9465000C9465000C9465006C
:100080000C9465000C9465000C94650011241FBE4F
:10009000CFEFD0E4DEBFCDBF11E0A0E0B1E0E8EDEE
:1000A000F3E000E00BBF02C007900D92A231B10750
:1000B000D9F721E0A2E1B1E001C01D92A931B20758
:1000C000E1F70E94B7010C94EA010C940000CF9371
:1000D000DF9300D01F92CDB7DEB789837B836A831D
:1000E00089818A3031F48A819B81BC018DE00E9434
:1000F000670080EC90E0FC018081882F90E08072A6
:100100009927892BB1F386EC90E02981FC012083AB
:1001100080E090E00F900F900F90DF91CF910895C5
:10012000CF93DF93CDB7DEB781E890E02BE0FC0101
:10013000208388E890E02DE730E0FC0131832083C4
:100140008FE690E022E0FC01208384E890E0FC014F
:100150001182108280910E0190910F01A0911001E7
:10016000B09111018093130190931401A093150194
:10017000B09316018FE590E02FE530E0F901208182
:100180002068FC0120830000DF91CF910895CF9378
:10019000DF93CDB7DEB781E890E0FC01108200006C
:1001A000DF91CF910895CF93DF93CDB7DEB781E094
:1001B000809312010000DF91CF910895CF93DF93D8
:1001C00000D0CDB7DEB79A838983809113019091D7
:1001D0001401A0911501B09116010197A109B1096F
:1001E0008093130190931401A0931501B09316010D
:1001F0008091130190911401A0911501B091160105
:10020000892B8A2B8B2B91F40E94D30080910E01B5
:1002100090910F01A0911001B091110180931301F1
:1002200090931401A0931501B093160100000F9054
:100230000F90DF91CF910895CF93DF9300D000D03E
:10024000CDB7DEB769837A838B839C8389819A815A
:10025000AB81BC8180930E0190930F01A09310019C
:10026000B093110180910E0190910F01A0911001A6
:10027000B09111018093130190931401A093150183
:10028000B093160100000F900F900F900F90DF9128
:10029000CF910895CF93DF93CDB7DEB7809117014B
:1002A0009091180182309105E1F08330910528F496
:1002B000009749F0019771F029C083309105C1F092
:1002C0000497E9F023C081E090E0909318018093B7
:1002D00017011CC082E090E09093180180931701F1
:1002E00015C083E090E090931801809317010EC031
:1002F00084E090E0909318018093170107C082E09A
:1003000090E09093180180931701000080911701ED
:10031000909118018230910599F08330910528F46D
:10032000009701F1019739F01EC08330910571F0FB
:10033000049791F018C085E290E0FC01108213C090
:1003400085E290E021E0FC0120830DC085E290E091
:1003500022E0FC01208307C085E290E024E0FC015C
:10036000208301C000000000DF91CF910895CF935A
:10037000DF931F92CDB7DEB784E290E02FEFFC0150
:10038000208385E290E0FC01108268EE73E080E05B
:1003900090E00E941C010E949000198268EE73E0B8
:1003A00080E090E00E941C010E94900010921801D1
:1003B0001092170189818095898385E290E02981D7
:1003C000FC0120830000809112018823E1F3109248
:0803D0001201F0CFF894FFCFF9
:1003D80000000002000000006700000000000100AB
:0203E800000013
:00000001FF
