:100000000C945A000C9479000C9479000C947900AB
:100010000C9479000C9479000C9479000C9479007C
:100020000C9479000C9479000C9479000C9479006C
:100030000C9479000C94F2000C9479000C947900E3
:100040000C9479000C9479000C9479000C9479004C
:100050000C9479000C9479000C9479000C9479003C
:100060000C9479000C9479000C9479000C9479002C
:100070000C9479000C9479000C9479000C9479001C
:100080000C9479000C9479000C9479009C01A301E4
:10009000AA01B101B801BF01C601CD01D401DB0144
:1000A0002F02F801FD01030209020F0215021B02D3
:1000B0002102270211241FBECFEFD0E4DEBFCDBF47
:1000C00011E0A0E0B1E0E8ECF4E000E00BBF02C01A
:1000D00007900D92A231B107D9F721E0A2E1B1E07A
:1000E00001C01D92A931B207E1F70E9434020C94BD
:1000F00062020C940000CF93DF9300D01F92CDB723
:10010000DEB789837B836A8389818A3031F48A816F
:100110009B81BC018DE00E947B0080EC90E0FC01A3
:100120008081882F90E080729927892BB1F386EC2B
:1001300090E02981FC01208380E090E00F900F90F7
:100140000F90DF91CF910895CF93DF93CDB7DEB7B6
:1001500081E890E02BE0FC01208388E890E02DE727
:1001600030E0FC01318320838FE690E022E0FC0147
:10017000208384E890E0FC011182108280910E01BE
:1001800090910F01A0911001B09111018093130182
:1001900090931401A0931501B09316018FE590E0A0
:1001A0002FE530E0F90120812068FC012083000068
:1001B000DF91CF910895CF93DF93CDB7DEB781E87C
:1001C00090E0FC0110820000DF91CF910895CF9361
:1001D000DF93CDB7DEB781E0809312010000DF919D
:1001E000CF9108951F920F9200905F000F921124FB
:1001F00000905B000F922F933F934F935F936F9309
:100200007F938F939F93AF93BF93EF93FF93CF937E
:10021000DF93CDB7DEB78091130190911401A091C7
:100220001501B09116010197A109B109809313013D
:1002300090931401A0931501B093160180911301BE
:1002400090911401A0911501B0911601892B8A2B70
:100250008B2B91F40E94E70080910E0190910F0189
:10026000A0911001B091110180931301909314019A
:10027000A0931501B09316010000DF91CF91FF917B
:10028000EF91BF91AF919F918F917F916F915F910E
:100290004F913F912F910F9000925B000F90009231
:1002A0005F000F901F901895CF93DF9300D000D080
:1002B000CDB7DEB769837A838B839C8389819A81EA
:1002C000AB81BC8180930E0190930F01A09310012C
:1002D000B093110180910E0190910F01A091100136
:1002E000B09111018093130190931401A093150113
:1002F000B093160100000F900F900F900F90DF91B8
:10030000CF910895CF93DF93CDB7DEB780911701DA
:1003100090911801CC01A0E0B0E040E050E029E06D
:1003200030E0841B950B2817390708F44BC08A5B13
:100330009F4FFC010C94590281E090E090931801CA
:100340008093170140C082E090E090931801809361
:10035000170139C083E090E0909318018093170152
:1003600032C084E090E090931801809317012BC075
:1003700085E090E0909318018093170124C086E0F7
:1003800090E090931801809317011DC087E090E0E2
:10039000909318018093170116C088E090E0909325
:1003A0001801809317010FC089E090E09093180125
:1003B0008093170108C082E090E090931801809329
:1003C000170101C000008091170190911801CC0124
:1003D000A0E0B0E040E050E029E030E0841B950B65
:1003E00028173907D0F1805B9F4FFC010C9459020C
:1003F00085E290E0FC01108233C085E290E021E0CC
:10040000FC0120832DC085E290E022E0FC012083E6
:1004100027C085E290E024E0FC01208321C085E232
:1004200090E022E0FC0120831BC085E290E021E007
:10043000FC01208315C085E290E022E0FC012083CE
:100440000FC085E290E024E0FC01208309C085E232
:1004500090E022E0FC01208303C0000001C0000006
:100460000000DF91CF910895CF93DF93CDB7DEB732
:1004700084E290E02FEFFC01208385E290E0FC0114
:10048000108264E670E080E090E00E9454010E94D7
:10049000A40081E090E090931801809317010E94DE
:1004A00082010000809112018823E1F31092120171
:1004B000F6CFEE0FFF1F0024001C0BBE0790F69135
:0804C000E02D0994F894FFCF30
:1004C80000000002000000007B00000000000100A6
:0204D800000022
:00000001FF
