:100000000C945E000C947D000C947D000C947D009B
:100010000C947D000C947D000C947D000C947D006C
:100020000C947D000C947D000C947D000C947D005C
:100030000C947D000C94F6000C947D000C947D00D3
:100040000C947D000C947D000C947D000C947D003C
:100050000C947D000C947D000C947D000C947D002C
:100060000C947D000C947D000C947D000C947D001C
:100070000C947D000C947D000C947D000C947D000C
:100080000C947D000C947D000C947D00A001A701D0
:10009000AE01C501DC01EE01F501FC0103020A021B
:1000A000110218026E0239023E026E026E02440212
:1000B0004A02500256025C026202680211241FBE0C
:1000C000CFEFD0E4DEBFCDBF11E0A0E0B1E0E6E4C9
:1000D000F5E000E00BBF02C007900D92A231B1071E
:1000E000D9F721E0A2E1B1E001C01D92AA31B20727
:1000F000E1F70E9473020C94A1020C940000CF93CC
:10010000DF9300D01F92CDB7DEB789837B836A83EC
:1001100089818A3031F48A819B81BC018DE00E9403
:100120007F0080EC90E0FC018081882F90E080725D
:100130009927892BB1F386EC90E02981FC0120837B
:1001400080E090E00F900F900F90DF91CF91089595
:10015000CF93DF93CDB7DEB781E890E02BE0FC01D1
:10016000208388E890E02DE730E0FC013183208394
:100170008FE690E022E0FC01208384E890E0FC011F
:100180001182108280910E0190910F01A0911001B7
:10019000B09111018093130190931401A093150164
:1001A000B09316018FE590E02FE530E0F901208152
:1001B0002068FC0120830000DF91CF910895CF9348
:1001C000DF93CDB7DEB781E890E0FC01108200003C
:1001D000DF91CF910895CF93DF93CDB7DEB781E064
:1001E000809312010000DF91CF9108951F920F922A
:1001F00000905F000F92112400905B000F922F93EC
:100200003F934F935F936F937F938F939F93AF939E
:10021000BF93EF93FF93CF93DF93CDB7DEB780917A
:10022000130190911401A0911501B091160101974D
:10023000A109B1098093130190931401A0931501B2
:10024000B09316018091130190911401A0911501B2
:10025000B0911601892B8A2B8B2B91F40E94EB0015
:1002600080910E0190910F01A0911001B0911101A8
:100270008093130190931401A0931501B09316017C
:100280000000DF91CF91FF91EF91BF91AF919F91CE
:100290008F917F916F915F914F913F912F910F902F
:1002A00000925B000F9000925F000F901F901895D6
:1002B000CF93DF9300D000D0CDB7DEB769837A83C8
:1002C0008B839C8389819A81AB81BC8180930E0151
:1002D00090930F01A0931001B093110180910E0132
:1002E00090910F01A0911001B09111018093130121
:1002F00090931401A0931501B093160100000F9084
:100300000F900F900F90DF91CF910895CF93DF93CF
:10031000CDB7DEB78091180190911901CC01A0E012
:10032000B0E040E050E02BE030E0841B950B281754
:10033000390708F484C08A5B9F4FFC010C94980233
:1003400081E090E090931901809318017DC082E0D4
:1003500090E0909319018093180176C08091170165
:10036000882339F083E090E090931901809318017D
:1003700068C080911701882309F063C085E090E090
:1003800090931901809318015CC080911701882314
:1003900039F484E090E0909319018093180153C0E0
:1003A00080911701882309F44EC083E090E0909378
:1003B00019018093180147C080911701882339F0F3
:1003C00085E090E090931901809318013DC084E08E
:1003D00090E0909319018093180136C086E090E078
:1003E00090931901809318012FC087E090E09093BB
:1003F00019018093180128C088E090E090931901BA
:100400008093180121C089E090E0909319018093B6
:1004100018011AC08AE090E09093190180931801A6
:1004200013C08BE090E090931901809318010CC0E9
:1004300082E090E0909319018093180105C00000BC
:1004400003C0000001C000008091180190911901C3
:10045000CC01A0E0B0E040E050E02BE030E0841BB5
:10046000950B28173907D0F18E5A9F4FFC010C9439
:10047000980285E290E0FC01108231C085E290E0B4
:1004800021E0FC0120832BC085E290E022E0FC010A
:10049000208325C085E290E024E0FC0120831FC07A
:1004A00085E290E022E0FC01208319C085E290E023
:1004B00021E0FC01208313C085E290E022E0FC01F2
:1004C00020830DC085E290E024E0FC01208307C07A
:1004D00085E290E022E0FC01208301C000000000E2
:1004E000DF91CF910895CF93DF93CDB7DEB784E24C
:1004F00090E02FEFFC01208385E290E0FC01108268
:1005000064E670E080E090E00E9458010E94A8003C
:1005100081E090E090931901809318010E94860178
:100520000000809112018823E1F310921201F6CFAE
:10053000EE0FFF1F0024001C0BBE0790F691E02D6C
:060540000994F894FFCFBE
:1005460000000002000000007F0000000000010023
:020556000000A3
:00000001FF
